:020000040800F2
:10000000600600200D020008150200081702000813
:10001000190200081B0200081D0200080000000071
:100020000000000000000000000000001F020008A7
:100030002102000800000000230200082502000839
:1000400027020008270200082702000827020008EC
:1000500027020008270200082702000827020008DC
:1000600027020008270200082702000827020008CC
:1000700027020008270200082702000827020008BC
:1000800027020008270200082702000827020008AC
:10009000270200082702000827020008270200089C
:1000A000270200082702000827020008270200088C
:1000B000270200082702000827020008270200087C
:1000C000270200082702000827020008270200086C
:1000D000270200082702000827020008270200085C
:1000E000270200082702000827020008270200084C
:1000F000270200082702000827020008270200083C
:10010000270200082702000827020008270200082B
:10011000270200082702000827020008270200081B
:10012000270200082702000827020008270200080B
:1001300027020008270200082702000827020008FB
:1001400027020008270200082702000827020008EB
:1001500027020008270200082702000827020008DB
:1001600027020008270200082702000827020008CB
:1001700027020008270200082702000800000000EC
:10018000270200082702000800F002F800F02EF80D
:100190000AA090E8000C82448344AAF10107DA45E2
:1001A00001D100F023F8AFF2090EBAE80F0013F006
:1001B000010F18BFFB1A43F0010318476C0300003E
:1001C0007C0300000023002400250026103A28BFED
:1001D00078C1FBD8520728BF30C148BF0B607047B9
:1001E0001FB500F08DF91FBD10B510BD00F031F83E
:1001F0001146FFF7F5FF00F071F900F04FF803B476
:10020000FFF7F2FF03BC00F057F8000009488047F1
:1002100009480047FEE7FEE7FEE7FEE7FEE7FEE7E8
:10022000FEE7FEE7FEE7FEE704480549054A064B00
:10023000704700001D0400088901000860000020CC
:1002400060060020600200206002002070477047B6
:100250007047754600F02CF8AE46050069465346D7
:1002600020F00700854618B020B5FFF7DDFFBDE898
:1002700020404FF000064FF000074FF000084FF00D
:10028000000BAC46ACE8C009ACE8C009ACE8C0095A
:10029000ACE8C00921F007018D46704710B504464F
:1002A000AFF300802046BDE81040FFF7A8BF000074
:1002B000004870470000002001491820ABBEFEE74F
:1002C000260002007047000043F63001C4F202012C
:1002D000086840F0010008600021C4F202010868CB
:1002E00040F4201008600821C4F20201086840F4BC
:1002F000201008602421C4F20201086840F4EE6076
:100300000860704782B043F60001C4F20201086839
:1003100040F480300860FFE743F60000C4F20200BA
:1003200000688003002801D4FFE7F5E743F64001A9
:10033000C4F20201086840F08050086047F20001F2
:10034000C4F20001086840F44040086043F60041F0
:10035000C4F202010091086840F400700860086867
:1003600040F480600860086840F4807008600868A5
:1003700040F00500086043F60801C4F20201086875
:100380004FF60F7210400860086840F4A0500860F3
:10039000086840F40040086043F60401C4F202011A
:1003A000019108686FF311000860086840F00400CC
:1003B0000860086840F428500860086820F440305D
:1003C0000860086840F48000086043F60001C4F249
:1003D0000201086840F080700860FFE743F6000003
:1003E000C4F2020000688001002801D4FFE7F5E7AD
:1003F00043F60801C4F20201086840F002000860F8
:10040000FFE743F60800C4F20200006800F00C00A9
:10041000082801D0FFE7F4E702B070474EF6885194
:10042000CEF20001086840F47000086070470000D8
:1004300043F64401C4F20201086840F0100008606D
:1004400041F20C01C4F20101086840F40050086058
:10045000086820F48050086041F21002C4F20102E2
:10046000106820F440501060086820F48060086034
:1004700041F20802C4F2010242F22E201060086824
:1004800040F00C000860704781B08DF803009DF8C3
:10049000030041F20401C4F201010860FFE741F2E8
:1004A0000000C4F2010000684006002801D4FFE704
:1004B000F5E701B07047000080B582B00190FFE71A
:1004C0000198007840B1FFE701980078FFF7DCFF62
:1004D000019801300190F3E702B080BD80B582B091
:1004E00000200190FFF70EFFFFF7EEFEFFF7A0FFE1
:1004F00040F21A50C0F60000FFF7DEFFFFE7FEE70C
:10050000F1EE100A4FF6FF71C0F2C03120EA01008F
:1005100040F04070E1EE100A704748656C6C6F2047
:10052000776F726C64210A00380500080000002013
:0805300060060000C401000890
:040000050800020DE0
:00000001FF
