:020000040800F2
:1000000070060020290200083102000833020008AF
:10001000350200083702000839020008000000001D
:100020000000000000000000000000003B0200088B
:100030003D020008000000003F02000841020008E5
:10004000430200084302000843020008430200087C
:10005000430200084302000843020008430200086C
:10006000430200084302000843020008430200085C
:10007000430200084302000843020008430200084C
:10008000430200084302000843020008430200083C
:10009000430200084302000843020008430200082C
:1000A000430200084302000843020008430200081C
:1000B000430200084302000843020008430200080C
:1000C00043020008430200084302000843020008FC
:1000D00043020008430200084302000843020008EC
:1000E00043020008430200084302000843020008DC
:1000F00043020008430200084302000843020008CC
:1001000043020008430200084302000843020008BB
:1001100043020008430200084302000843020008AB
:10012000430200084302000843020008430200089B
:10013000430200084302000843020008430200088B
:10014000430200084302000843020008430200087B
:10015000430200084302000843020008430200086B
:10016000430200084302000843020008430200085B
:100170004302000843020008430200080000000098
:10018000430200084302000800F002F800F03CF8C7
:100190000AA090E8000C82448344AAF10107DA45E2
:1001A00001D100F031F8AFF2090EBAE80F0013F0F8
:1001B000010F18BFFB1A43F001031847BC040000ED
:1001C000DC040000103A24BF78C878C1FAD852077E
:1001D00024BF30C830C144BF04680C6070470000C1
:1001E0000023002400250026103A28BF78C1FBD840
:1001F000520728BF30C148BF0B6070471FB500F0E1
:100200002EFA1FBD10B510BD00F031F81146FFF7F2
:10021000F5FF00F007FA00F04FF803B4FFF7F2FF24
:1002200003BC00F057F80000094880470948004720
:10023000FEE7FEE7FEE7FEE7FEE7FEE7FEE7FEE796
:10024000FEE7FEE704480549054A064B70470000F3
:1002500011060008890100087000002070060020C7
:10026000700200207002002070477047704775468A
:1002700000F02CF8AE4605006946534620F0070012
:10028000854618B020B5FFF7DDFFBDE820404FF0F0
:1002900000064FF000074FF000084FF0000BAC468F
:1002A000ACE8C009ACE8C009ACE8C009ACE8C009DA
:1002B00021F007018D46704710B50446AFF300806A
:1002C0002046BDE81040FFF7A8BF00000048704777
:1002D0000800002001491820ABBEFEE726000200FE
:1002E0007047000043F63001C4F20201086840F094
:1002F000010008600022C4F20202106840F42840A5
:1003000010600821C4F20201086840F47C400860D3
:100310002023C4F20203186840F2000CC5F2505CBE
:1003200040EA0C001860106840F4807010600422ED
:10033000C4F20202106820F010001060086840F457
:10034000407008601421C4F20201086840F01000F7
:100350000860704743F64401C4F20201086840F4A3
:100360008050086043F20001C4F20101086820F0E7
:1003700003000860086840F004000860086840F066
:1003800018000860086820F080000860086840F4E1
:1003900040700860086820F480600860086820F4F5
:1003A0000060086043F20402C4F201020020106001
:1003B000086840F0400008607047000081B08DF888
:1003C00003009DF8030040B1FFE71421C4F20201CD
:1003D000086840F01000086007E01421C4F2020130
:1003E000086820F010000860FFE701B070470000C7
:1003F00080B582B0019000910020FFF7DFFFFFE79A
:10040000009840B3FFE7FFE743F20800C4F20100A1
:1004100000680006002801D5FFE7F5E743F20C016C
:10042000C4F2010100200860FFE743F20800C4F2B3
:1004300001000068C00708B9FFE7F6E743F20C00C7
:10044000C4F20100006801994A1C019208700098EA
:1004500001380090D4E70120FFF7B0FF02B080BD63
:1004600080B584B00390029100200190FFF7A6FFB1
:10047000FFE701980299884217D2FFE7FFE743F2AE
:100480000800C4F2010000688007002801D4FFE7DB
:10049000F5E703980199405C43F20C01C4F20101B5
:1004A0000860019801300190E3E7FFE743F208009C
:1004B000C4F2010000688007002801D4FFE7F5E7D7
:1004C000FFE743F20800C4F20100006800060028BC
:1004D00001D5FFE7F5E743F20C00C4F20100006824
:1004E000019043F20800C4F201000068019001206D
:1004F000FFF764FF04B080BD82B043F60001C4F290
:100500000201086840F480300860FFE743F600000D
:10051000C4F2020000688003002801D4FFE7F5E779
:1005200043F64001C4F20201086840F080500860C0
:1005300047F20001C4F20001086840F4404008603E
:1005400043F60041C4F202010091086840F40070D3
:100550000860086840F480600860086840F48070B3
:100560000860086840F00500086043F60801C4F21E
:10057000020108684FF60F7210400860086840F4E6
:10058000A0500860086840F40040086043F6040189
:10059000C4F20201019108686FF311000860086855
:1005A00040F004000860086840F4285008600868BB
:1005B00020F440300860086840F48000086043F68A
:1005C0000001C4F20201086840F080700860FFE793
:1005D00043F60000C4F2020000688001002801D444
:1005E000FFE7F5E743F60801C4F20201086840F0AE
:1005F00002000860FFE743F60800C4F2020000684A
:1006000000F00C00082801D0FFE7F4E702B07047C3
:100610004EF68851CEF20001086840F47000086080
:100620007047000080B584B0002002900390FFF76F
:1006300063FFFFF757FEFFF78DFE40F20000C2F2A6
:10064000000005210191FFF70BFF019940F26800BE
:10065000C2F20000FFF7CCFE029804B080BDF1EEBC
:10066000100A4FF6FF71C0F2C03120EA010040F0DD
:100670004070E1EE100A7047980600080000002064
:1006800008000000C4010008A006000808000020BF
:1006900068060000E00100081242A2BA6F000000E4
:0400000508000229C4
:00000001FF
