:020000040800F2
:10000000600600200D020008150200081702000813
:10001000190200081B0200081D0200080000000071
:100020000000000000000000000000001F020008A7
:100030002102000800000000230200082502000839
:1000400027020008270200082702000827020008EC
:1000500027020008270200082702000827020008DC
:1000600027020008270200082702000827020008CC
:1000700027020008270200082702000827020008BC
:1000800027020008270200082702000827020008AC
:10009000270200082702000827020008270200089C
:1000A000270200082702000827020008270200088C
:1000B000270200082702000827020008270200087C
:1000C000270200082702000827020008270200086C
:1000D000270200082702000827020008270200085C
:1000E000270200082702000827020008270200084C
:1000F000270200082702000827020008270200083C
:10010000270200082702000827020008270200082B
:10011000270200082702000827020008270200081B
:10012000270200082702000827020008270200080B
:1001300027020008270200082702000827020008FB
:1001400027020008270200082702000827020008EB
:1001500027020008270200082702000827020008DB
:1001600027020008270200082702000827020008CB
:1001700027020008270200082702000800000000EC
:10018000270200082702000800F002F800F02EF80D
:100190000AA090E8000C82448344AAF10107DA45E2
:1001A00001D100F023F8AFF2090EBAE80F0013F006
:1001B000010F18BFFB1A43F0010318473C0300006E
:1001C0004C0300000023002400250026103A28BF1D
:1001D00078C1FBD8520728BF30C148BF0B607047B9
:1001E0001FB500F07BF91FBD10B510BD00F031F850
:1001F0001146FFF7F5FF00F065F900F04FF803B482
:10020000FFF7F2FF03BC00F057F8000009488047F1
:1002100009480047FEE7FEE7FEE7FEE7FEE7FEE7E8
:10022000FEE7FEE7FEE7FEE704480549054A064B00
:10023000704700002D0400088901000860000020BC
:1002400060060020600200206002002070477047B6
:100250007047754600F02CF8AE46050069465346D7
:1002600020F00700854618B020B5FFF7DDFFBDE898
:1002700020404FF000064FF000074FF000084FF00D
:10028000000BAC46ACE8C009ACE8C009ACE8C0095A
:10029000ACE8C00921F007018D46704710B504464F
:1002A000AFF300802046BDE81040FFF7A8BF000074
:1002B000004870470000002001491820ABBEFEE74F
:1002C000260002007047000043F64401C4F2020118
:1002D000086840F48040086043F63001C4F202012F
:1002E000086840F0010008600021C4F202010868BB
:1002F00040F0280008600821C4F20201086840F0BC
:100300003C0008602021C4F20201086840F48870B3
:100310000860704782B043F60001C4F20201086829
:1003200040F480300860FFE743F60000C4F20200AA
:1003300000688003002801D4FFE7F5E743F6400199
:10034000C4F20201086840F08050086047F20001E2
:10035000C4F20001086840F44040086043F60041E0
:10036000C4F202010091086840F400700860086857
:1003700040F480600860086840F480700860086895
:1003800040F00500086043F60801C4F20201086865
:100390004FF60F7210400860086840F4A0500860E3
:1003A000086840F40040086043F60401C4F202010A
:1003B000019108686FF311000860086840F00400BC
:1003C0000860086840F428500860086820F440304D
:1003D0000860086840F48000086043F60001C4F239
:1003E0000201086840F080700860FFE743F60000F3
:1003F000C4F2020000688001002801D4FFE7F5E79D
:1004000043F60801C4F20201086840F002000860E7
:10041000FFE743F60800C4F20200006800F00C0099
:10042000082801D0FFE7F4E702B070474EF6885184
:10043000CEF20001086840F47000086070470000C8
:1004400043F64001C4F20201086840F00100086070
:100450002821C4F2000140F2473008602C21C4F288
:1004600000014FF4FA6008602421C4F2000100206A
:1004700008603821C4F200014FF47A7008603C2112
:10048000C4F200014FF4FA7008601821C4F20001B0
:10049000086840F4C04008601C21C4F200010868EC
:1004A00040F0700008602021C4F20001086840F4A8
:1004B000887008604FF08041086840F001000860D3
:1004C0007047000080B582B000200190FFF722FF46
:1004D000FFF7FAFEFFF7B4FFFFE7FEE7F1EE100AC1
:1004E0004FF6FF71C0F2C03120EA010040F04070C9
:1004F000E1EE100A70470000080500080000002027
:0805000060060000C4010008C0
:040000050800020DE0
:00000001FF
