:020000040800F2
:10000000680600200D02000815020008170200080B
:10001000190200081B0200081D0200080000000071
:100020000000000000000000000000001F020008A7
:100030002102000800000000230200082502000839
:1000400027020008270200082702000827020008EC
:100050002702000827020008C9020008270200083A
:1000600027020008270200082702000827020008CC
:1000700027020008270200082702000827020008BC
:1000800027020008270200082702000827020008AC
:10009000270200082702000827020008270200089C
:1000A000270200082702000827020008270200088C
:1000B000270200082702000827020008270200087C
:1000C000270200082702000827020008270200086C
:1000D000270200082702000827020008270200085C
:1000E000270200082702000827020008270200084C
:1000F000270200082702000827020008270200083C
:10010000270200082702000827020008270200082B
:10011000270200082702000827020008270200081B
:10012000270200082702000827020008270200080B
:1001300027020008270200082702000827020008FB
:1001400027020008270200082702000827020008EB
:1001500027020008270200082702000827020008DB
:1001600027020008270200082702000827020008CB
:1001700027020008270200082702000800000000EC
:10018000270200082702000800F002F800F02EF80D
:100190000AA090E8000C82448344AAF10107DA45E2
:1001A00001D100F023F8AFF2090EBAE80F0013F006
:1001B000010F18BFFB1A43F0010318472804000081
:1001C000380400000023002400250026103A28BF30
:1001D00078C1FBD8520728BF30C148BF0B607047B9
:1001E0001FB500F0F1F91FBD10B510BD00F031F8DA
:1001F0001146FFF7F5FF00F0DBF900F04FF803B40C
:10020000FFF7F2FF03BC00F057F8000009488047F1
:1002100009480047FEE7FEE7FEE7FEE7FEE7FEE7E8
:10022000FEE7FEE7FEE7FEE704480549054A064B00
:1002300070470000290500088901000868000020B7
:10024000680600206802002068020020704770479E
:100250007047754600F02CF8AE46050069465346D7
:1002600020F00700854618B020B5FFF7DDFFBDE898
:1002700020404FF000064FF000074FF000084FF00D
:10028000000BAC46ACE8C009ACE8C009ACE8C0095A
:10029000ACE8C00921F007018D46704710B504464F
:1002A000AFF300802046BDE81040FFF7A8BF000074
:1002B000004870470000002001491820ABBEFEE74F
:1002C000260002007047000043F61440C4F201000B
:1002D0000068C00790B3FFE743F61441C4F2010180
:1002E000086840F00100086040F26000C2F20000BF
:1002F00001680131016000684AF6A022C2F6AA2214
:100300004AF6AB21CAF6AA2100FB01204FEA701081
:100310004AF6AA21C0F2AA2188420ED8FFE714218A
:10032000C4F20201086880F08000086040F26001B9
:10033000C2F2000100200860FFE7FFE770470000FD
:1003400080B582B043F64401C4F20201086840F46B
:100350008040086043F60801C4F2010100200860F3
:1003600008600860086043F60041C4F201010868B3
:1003700040F00100086043F60841C4F2010108683A
:1003800040F00100086043F60C41C4F20101086826
:1003900020F00100086006200190012100F0E6F83D
:1003A000019800F0CBF802B080BD000043F63001A8
:1003B000C4F20201086840F0010008600023C4F2A2
:1003C0000203186820F0030018600822C4F2020239
:1003D000106840F0010010600C21C4F202010868AE
:1003E00040F001000860186840F480401860042361
:1003F000C4F20203186820F080001860106840F40E
:1004000080401060086840F00100086070470000FC
:1004100082B043F60001C4F20201086840F4803063
:100420000860FFE743F60000C4F2020000688003A2
:10043000002801D4FFE7F5E743F64001C4F20201CA
:10044000086840F08050086047F20001C4F20001E3
:10045000086840F44040086043F60041C4F20201DD
:100460000091086840F400700860086840F48060FB
:100470000860086840F480700860086840F0050073
:10048000086043F60801C4F2020108684FF60F72D3
:1004900010400860086840F4A0500860086840F404
:1004A0000040086043F60401C4F2020101910868AB
:1004B0006FF311000860086840F0040008600868E5
:1004C00040F428500860086820F44030086008684C
:1004D00040F48000086043F60001C4F2020108689D
:1004E00040F080700860FFE743F60000C4F20200AD
:1004F00000688001002801D4FFE7F5E743F6080112
:10050000C4F20201086840F002000860FFE743F609
:100510000800C4F20200006800F00C00082801D0B6
:10052000FFE7F4E702B070474EF68851CEF20001C3
:10053000086840F4700008607047000081B08DF8D2
:1005400003009DF9030000280ED4FFE79DF9031076
:1005500001F01F02012090404A094EF20011CEF234
:10056000000141F82200FFE701B0704782B08DF82A
:10057000070000919DF9070000280AD4FFE70098C2
:1005800000019DF907104EF20042CEF2000288549D
:100590000BE0009800019DF8071001F00F014EF6E6
:1005A0001452CEF200028854FFE702B070470000F8
:1005B00080B582B000200190FFF72AFFFFF7F6FE1A
:1005C000FFF7BEFEFFE7FEE7F1EE100A4FF6FF7100
:1005D000C0F2C03120EA010040F04070E1EE100AA4
:1005E00070470000F40500080000002068060000C5
:0405F000C40100083A
:040000050800020DE0
:00000001FF
