:020000040800F2
:1000000068060020290200083102000833020008B7
:10001000350200083702000839020008000000001D
:100020000000000000000000000000003B0200088B
:100030003D020008000000003F02000841020008E5
:10004000430200084302000843020008430200087C
:10005000430200084302000843020008430200086C
:10006000430200084302000843020008430200085C
:10007000430200084302000843020008430200084C
:10008000430200084302000843020008430200083C
:10009000430200084302000843020008430200082C
:1000A000430200084302000843020008430200081C
:1000B000430200084302000843020008430200080C
:1000C00043020008430200084302000843020008FC
:1000D00043020008430200084302000843020008EC
:1000E00043020008430200084302000843020008DC
:1000F00043020008430200084302000843020008CC
:1001000043020008430200084302000843020008BB
:1001100043020008430200084302000843020008AB
:10012000430200084302000843020008430200089B
:10013000430200084302000843020008430200088B
:10014000430200084302000843020008430200087B
:10015000430200084302000843020008430200086B
:10016000430200084302000843020008430200085B
:100170004302000843020008430200080000000098
:10018000430200084302000800F002F800F03CF8C7
:100190000AA090E8000C82448344AAF10107DA45E2
:1001A00001D100F031F8AFF2090EBAE80F0013F0F8
:1001B000010F18BFFB1A43F0010318472403000086
:1001C00044030000103A24BF78C878C1FAD8520717
:1001D00024BF30C830C144BF04680C6070470000C1
:1001E0000023002400250026103A28BF78C1FBD840
:1001F000520728BF30C148BF0B6070471FB500F0E1
:1002000061F91FBD10B510BD00F031F81146FFF7C0
:10021000F5FF00F03FF900F04FF803B4FFF7F2FFED
:1002200003BC00F057F80000094880470948004720
:10023000FEE7FEE7FEE7FEE7FEE7FEE7FEE7FEE796
:10024000FEE7FEE704480549054A064B70470000F3
:1002500049040008890100086800002068060020A1
:10026000680200206802002070477047704775469A
:1002700000F02CF8AE4605006946534620F0070012
:10028000854618B020B5FFF7DDFFBDE820404FF0F0
:1002900000064FF000074FF000084FF0000BAC468F
:1002A000ACE8C009ACE8C009ACE8C009ACE8C009DA
:1002B00021F007018D46704710B50446AFF300806A
:1002C0002046BDE81040FFF7A8BF00000048704777
:1002D0000800002001491820ABBEFEE726000200FE
:1002E0007047000043F63001C4F20201086840F094
:1002F000010008600021C4F20201086840F4804057
:1003000008600421C4F20201086820F0800008603F
:100310000821C4F20201086840F4804008600C2102
:10032000C4F20201086840F4804008607047000091
:1003300082B043F60001C4F20201086840F4803044
:100340000860FFE743F60000C4F202000068800383
:10035000002801D4FFE7F5E743F64001C4F20201AB
:10036000086840F08050086047F20001C4F20001C4
:10037000086840F44040086043F60041C4F20201BE
:100380000091086840F400700860086840F48060DC
:100390000860086840F480700860086840F0050054
:1003A000086043F60801C4F2020108684FF60F72B4
:1003B00010400860086840F4A0500860086840F4E5
:1003C0000040086043F60401C4F20201019108688C
:1003D0006FF311000860086840F0040008600868C6
:1003E00040F428500860086820F44030086008682D
:1003F00040F48000086043F60001C4F2020108687E
:1004000040F080700860FFE743F60000C4F202008D
:1004100000688001002801D4FFE7F5E743F60801F2
:10042000C4F20201086840F002000860FFE743F6EA
:100430000800C4F20200006800F00C00082801D097
:10044000FFE7F4E702B070474EF68851CEF20001A4
:10045000086840F4700008607047000083B00290A4
:1004600000200190FFE70198029988420FD2FFE730
:100470004FF6FF700090FFE70098411E009108B111
:10048000FFE7F9E7FFE7019801300190EBE703B0E0
:100490007047000080B582B000200190FFF748FF50
:1004A000FFF720FFFFE71421C4F20201086880F083
:1004B0008000086040F20000C2F200000068FFF710
:1004C000CDFFF0E7F1EE100A4FF6FF71C0F2C03138
:1004D00020EA010040F04070E1EE100A7047000091
:1004E000000500080000002004000000C40100080E
:1004F000040500080800002060060000E001000874
:040500006400000093
:0400000508000229C4
:00000001FF
