:020000040800F2
:10000000600600200D020008150200081702000813
:10001000190200081B0200081D0200080000000071
:100020000000000000000000000000001F020008A7
:100030002102000800000000230200082502000839
:1000400027020008270200082702000827020008EC
:1000500027020008270200082702000827020008DC
:1000600027020008270200082702000827020008CC
:1000700027020008270200082702000827020008BC
:1000800027020008270200082702000827020008AC
:10009000270200082702000827020008270200089C
:1000A000270200082702000827020008270200088C
:1000B0002702000827020008490400082702000858
:1000C000270200082702000827020008270200086C
:1000D000270200082702000827020008270200085C
:1000E000270200082702000827020008270200084C
:1000F000270200082702000827020008270200083C
:10010000270200082702000827020008270200082B
:10011000270200082702000827020008270200081B
:10012000270200082702000827020008270200080B
:1001300027020008270200082702000827020008FB
:1001400027020008270200082702000827020008EB
:1001500027020008270200082702000827020008DB
:1001600027020008270200082702000827020008CB
:1001700027020008270200082702000800000000EC
:10018000270200082702000800F002F800F02EF80D
:100190000AA090E8000C82448344AAF10107DA45E2
:1001A00001D100F023F8AFF2090EBAE80F0013F006
:1001B000010F18BFFB1A43F001031847700300003A
:1001C000800300000023002400250026103A28BFE9
:1001D00078C1FBD8520728BF30C148BF0B607047B9
:1001E0001FB500F095F91FBD10B510BD00F031F836
:1001F0001146FFF7F5FF00F07FF900F04FF803B468
:10020000FFF7F2FF03BC00F057F8000009488047F1
:1002100009480047FEE7FEE7FEE7FEE7FEE7FEE7E8
:10022000FEE7FEE7FEE7FEE704480549054A064B00
:1002300070470000350400088901000860000020B4
:1002400060060020600200206002002070477047B6
:100250007047754600F02CF8AE46050069465346D7
:1002600020F00700854618B020B5FFF7DDFFBDE898
:1002700020404FF000064FF000074FF000084FF00D
:10028000000BAC46ACE8C009ACE8C009ACE8C0095A
:10029000ACE8C00921F007018D46704710B504464F
:1002A000AFF300802046BDE81040FFF7A8BF000074
:1002B000004870470000002001491820ABBEFEE74F
:1002C000260002007047000043F63001C4F202012C
:1002D000086840F0010008600021C4F202010868CB
:1002E00040F4804008600421C4F20201086820F054
:1002F000010008600821C4F20201086840F480404F
:1003000008600C21C4F20201086840F480400860D3
:100310001421C4F2020100200860704782B043F645
:100320000001C4F20201086840F480300860FFE771
:1003300043F60000C4F2020000688003002801D4E4
:10034000FFE7F5E743F64001C4F20201086840F018
:100350008050086047F20001C4F20001086840F4D0
:100360004040086043F60041C4F202010091086871
:1003700040F400700860086840F480600860086815
:1003800040F480700860086840F00500086043F69B
:100390000801C4F2020108684FF60F7210400860AD
:1003A000086840F4A0500860086840F40040086005
:1003B00043F60401C4F20201019108686FF31100D1
:1003C0000860086840F004000860086840F428509D
:1003D0000860086820F440300860086840F4800035
:1003E000086043F60001C4F20201086840F0807022
:1003F0000860FFE743F60000C4F2020000688001D5
:10040000002801D4FFE7F5E743F60801C4F2020132
:10041000086840F002000860FFE743F60800C4F2F5
:100420000200006800F00C00082801D0FFE7F4E7A4
:1004300002B070474EF68851CEF20001086840F4D1
:10044000700008607047000040F61001C4F200011F
:10045000002008601421C4F20201086880F08000C6
:100460000860704780B543F64001C4F20201086895
:1004700040F00400086040F62801C4F2000140F298
:100480004730086040F62C01C4F200014CF25030B5
:10049000086040F62401C4F200010020086040F624
:1004A0000C01C4F20001086840F0010008601E2041
:1004B00000F00AF840F60001C4F20001086840F0BC
:1004C0000100086080BD000081B08DF803009DF937
:1004D000030000280ED4FFE79DF9031001F01F026E
:1004E000012090404A094EF20011CEF2000141F87D
:1004F0002200FFE701B0704780B582B00020019074
:10050000FFF70CFFFFF7E0FEFFF7ACFFFFE7FEE7AA
:10051000F1EE100A4FF6FF71C0F2C03120EA01007F
:1005200040F04070E1EE100A704700003C05000802
:0C0530000000002060060000C40100086C
:040000050800020DE0
:00000001FF
